{
  "abi": [
    {
      "inputs": [
        {
          "internalType": "address",
          "name": "_timelock",
          "type": "address"
        },
        {
          "internalType": "address",
          "name": "_erc20VoteToken",
          "type": "address"
        }
      ],
      "stateMutability": "nonpayable",
      "type": "constructor"
    },
    {
      "anonymous": false,
      "inputs": [
        {
          "indexed": false,
          "internalType": "uint256",
          "name": "proposalId",
          "type": "uint256"
        }
      ],
      "name": "ProposalCanceled",
      "type": "event"
    },
    {
      "anonymous": false,
      "inputs": [
        {
          "indexed": false,
          "internalType": "address[]",
          "name": "targets",
          "type": "address[]"
        },
        {
          "indexed": false,
          "internalType": "uint256[]",
          "name": "values",
          "type": "uint256[]"
        },
        {
          "indexed": false,
          "internalType": "string[]",
          "name": "signatures",
          "type": "string[]"
        },
        {
          "indexed": false,
          "internalType": "bytes[]",
          "name": "calldatas",
          "type": "bytes[]"
        },
        {
          "indexed": false,
          "internalType": "uint256",
          "name": "startBlock",
          "type": "uint256"
        },
        {
          "indexed": false,
          "internalType": "uint256",
          "name": "endBlock",
          "type": "uint256"
        },
        {
          "indexed": false,
          "internalType": "address",
          "name": "proposer",
          "type": "address"
        }
      ],
      "name": "ProposalCreated",
      "type": "event"
    },
    {
      "anonymous": false,
      "inputs": [
        {
          "indexed": false,
          "internalType": "uint256",
          "name": "proposalId",
          "type": "uint256"
        }
      ],
      "name": "ProposalExecuted",
      "type": "event"
    },
    {
      "anonymous": false,
      "inputs": [
        {
          "indexed": true,
          "internalType": "address",
          "name": "voter",
          "type": "address"
        },
        {
          "indexed": false,
          "internalType": "uint256",
          "name": "proposalId",
          "type": "uint256"
        },
        {
          "indexed": false,
          "internalType": "uint8",
          "name": "support",
          "type": "uint8"
        },
        {
          "indexed": false,
          "internalType": "uint256",
          "name": "weight",
          "type": "uint256"
        },
        {
          "indexed": false,
          "internalType": "string",
          "name": "reason",
          "type": "string"
        }
      ],
      "name": "VoteCast",
      "type": "event"
    },
    {
      "anonymous": false,
      "inputs": [
        {
          "indexed": false,
          "internalType": "address",
          "name": "voter",
          "type": "address"
        },
        {
          "indexed": false,
          "internalType": "uint256",
          "name": "proposalId",
          "type": "uint256"
        },
        {
          "indexed": false,
          "internalType": "bool",
          "name": "support",
          "type": "bool"
        },
        {
          "indexed": false,
          "internalType": "uint256",
          "name": "votes",
          "type": "uint256"
        }
      ],
      "name": "VoteCast",
      "type": "event"
    },
    {
      "anonymous": false,
      "inputs": [
        {
          "indexed": true,
          "internalType": "address",
          "name": "voter",
          "type": "address"
        },
        {
          "indexed": false,
          "internalType": "uint256",
          "name": "proposalId",
          "type": "uint256"
        },
        {
          "indexed": false,
          "internalType": "uint8",
          "name": "support",
          "type": "uint8"
        },
        {
          "indexed": false,
          "internalType": "uint256",
          "name": "weight",
          "type": "uint256"
        },
        {
          "indexed": false,
          "internalType": "string",
          "name": "reason",
          "type": "string"
        },
        {
          "indexed": false,
          "internalType": "bytes",
          "name": "params",
          "type": "bytes"
        }
      ],
      "name": "VoteCastWithParams",
      "type": "event"
    },
    {
      "inputs": [],
      "name": "BALLOT_TYPEHASH",
      "outputs": [
        {
          "internalType": "bytes32",
          "name": "",
          "type": "bytes32"
        }
      ],
      "stateMutability": "view",
      "type": "function"
    },
    {
      "inputs": [],
      "name": "DOMAIN_TYPEHASH",
      "outputs": [
        {
          "internalType": "bytes32",
          "name": "",
          "type": "bytes32"
        }
      ],
      "stateMutability": "view",
      "type": "function"
    },
    {
      "inputs": [],
      "name": "MAX_PROPOSAL_THRESHOLD",
      "outputs": [
        {
          "internalType": "uint256",
          "name": "",
          "type": "uint256"
        }
      ],
      "stateMutability": "view",
      "type": "function"
    },
    {
      "inputs": [],
      "name": "MAX_VOTING_PERIOD",
      "outputs": [
        {
          "internalType": "uint256",
          "name": "",
          "type": "uint256"
        }
      ],
      "stateMutability": "view",
      "type": "function"
    },
    {
      "inputs": [],
      "name": "MIN_PROPOSAL_THRESHOLD",
      "outputs": [
        {
          "internalType": "uint256",
          "name": "",
          "type": "uint256"
        }
      ],
      "stateMutability": "view",
      "type": "function"
    },
    {
      "inputs": [],
      "name": "MIN_VOTING_DELAY",
      "outputs": [
        {
          "internalType": "uint256",
          "name": "",
          "type": "uint256"
        }
      ],
      "stateMutability": "view",
      "type": "function"
    },
    {
      "inputs": [],
      "name": "MIN_VOTING_PERIOD",
      "outputs": [
        {
          "internalType": "uint256",
          "name": "",
          "type": "uint256"
        }
      ],
      "stateMutability": "view",
      "type": "function"
    },
    {
      "inputs": [
        {
          "internalType": "uint256",
          "name": "proposalId",
          "type": "uint256"
        },
        {
          "internalType": "bool",
          "name": "support",
          "type": "bool"
        }
      ],
      "name": "castVote",
      "outputs": [],
      "stateMutability": "nonpayable",
      "type": "function"
    },
    {
      "inputs": [
        {
          "internalType": "uint256",
          "name": "proposalId",
          "type": "uint256"
        },
        {
          "internalType": "bool",
          "name": "support",
          "type": "bool"
        },
        {
          "internalType": "uint8",
          "name": "v",
          "type": "uint8"
        },
        {
          "internalType": "bytes32",
          "name": "r",
          "type": "bytes32"
        },
        {
          "internalType": "bytes32",
          "name": "s",
          "type": "bytes32"
        }
      ],
      "name": "castVoteBySig",
      "outputs": [],
      "stateMutability": "nonpayable",
      "type": "function"
    },
    {
      "inputs": [],
      "name": "erc20VoteToken",
      "outputs": [
        {
          "internalType": "contract ERC20VoteInterface",
          "name": "",
          "type": "address"
        }
      ],
      "stateMutability": "view",
      "type": "function"
    },
    {
      "inputs": [
        {
          "internalType": "address[]",
          "name": "targets",
          "type": "address[]"
        },
        {
          "internalType": "uint256[]",
          "name": "values",
          "type": "uint256[]"
        },
        {
          "internalType": "string",
          "name": "description",
          "type": "string"
        },
        {
          "internalType": "bytes[]",
          "name": "calldatas",
          "type": "bytes[]"
        }
      ],
      "name": "execute",
      "outputs": [],
      "stateMutability": "payable",
      "type": "function"
    },
    {
      "inputs": [
        {
          "internalType": "uint256",
          "name": "proposalId",
          "type": "uint256"
        },
        {
          "internalType": "address",
          "name": "account",
          "type": "address"
        }
      ],
      "name": "hasVoted",
      "outputs": [
        {
          "internalType": "bool",
          "name": "",
          "type": "bool"
        }
      ],
      "stateMutability": "view",
      "type": "function"
    },
    {
      "inputs": [],
      "name": "name",
      "outputs": [
        {
          "internalType": "string",
          "name": "",
          "type": "string"
        }
      ],
      "stateMutability": "view",
      "type": "function"
    },
    {
      "inputs": [],
      "name": "proposalCount",
      "outputs": [
        {
          "internalType": "uint256",
          "name": "",
          "type": "uint256"
        }
      ],
      "stateMutability": "view",
      "type": "function"
    },
    {
      "inputs": [
        {
          "internalType": "uint256",
          "name": "proposalId",
          "type": "uint256"
        }
      ],
      "name": "proposalDeadline",
      "outputs": [
        {
          "internalType": "uint256",
          "name": "",
          "type": "uint256"
        }
      ],
      "stateMutability": "view",
      "type": "function"
    },
    {
      "inputs": [],
      "name": "proposalMaxOperations",
      "outputs": [
        {
          "internalType": "uint256",
          "name": "",
          "type": "uint256"
        }
      ],
      "stateMutability": "view",
      "type": "function"
    },
    {
      "inputs": [
        {
          "internalType": "uint256",
          "name": "proposalId",
          "type": "uint256"
        }
      ],
      "name": "proposalSnapshot",
      "outputs": [
        {
          "internalType": "uint256",
          "name": "",
          "type": "uint256"
        }
      ],
      "stateMutability": "view",
      "type": "function"
    },
    {
      "inputs": [],
      "name": "proposalThreshold",
      "outputs": [
        {
          "internalType": "uint256",
          "name": "",
          "type": "uint256"
        }
      ],
      "stateMutability": "view",
      "type": "function"
    },
    {
      "inputs": [
        {
          "internalType": "uint256",
          "name": "",
          "type": "uint256"
        }
      ],
      "name": "proposals",
      "outputs": [
        {
          "internalType": "address",
          "name": "proposer",
          "type": "address"
        },
        {
          "internalType": "uint256",
          "name": "id",
          "type": "uint256"
        },
        {
          "internalType": "uint256",
          "name": "forVoters",
          "type": "uint256"
        },
        {
          "internalType": "uint256",
          "name": "againstVoters",
          "type": "uint256"
        },
        {
          "internalType": "bool",
          "name": "executed",
          "type": "bool"
        },
        {
          "internalType": "uint256",
          "name": "startBlock",
          "type": "uint256"
        },
        {
          "internalType": "uint256",
          "name": "endBlock",
          "type": "uint256"
        },
        {
          "internalType": "bool",
          "name": "canceled",
          "type": "bool"
        },
        {
          "internalType": "uint256",
          "name": "eta",
          "type": "uint256"
        }
      ],
      "stateMutability": "view",
      "type": "function"
    },
    {
      "inputs": [
        {
          "internalType": "address[]",
          "name": "targets",
          "type": "address[]"
        },
        {
          "internalType": "uint256[]",
          "name": "values",
          "type": "uint256[]"
        },
        {
          "internalType": "string",
          "name": "description",
          "type": "string"
        },
        {
          "internalType": "bytes[]",
          "name": "calldatas",
          "type": "bytes[]"
        }
      ],
      "name": "propose",
      "outputs": [
        {
          "internalType": "uint256",
          "name": "",
          "type": "uint256"
        }
      ],
      "stateMutability": "nonpayable",
      "type": "function"
    },
    {
      "inputs": [
        {
          "internalType": "address[]",
          "name": "targets",
          "type": "address[]"
        },
        {
          "internalType": "uint256[]",
          "name": "values",
          "type": "uint256[]"
        },
        {
          "internalType": "string",
          "name": "description",
          "type": "string"
        },
        {
          "internalType": "bytes[]",
          "name": "calldatas",
          "type": "bytes[]"
        }
      ],
      "name": "queue",
      "outputs": [],
      "stateMutability": "nonpayable",
      "type": "function"
    },
    {
      "inputs": [],
      "name": "quorumVotes",
      "outputs": [
        {
          "internalType": "uint256",
          "name": "",
          "type": "uint256"
        }
      ],
      "stateMutability": "view",
      "type": "function"
    },
    {
      "inputs": [
        {
          "internalType": "uint256",
          "name": "proposalId",
          "type": "uint256"
        }
      ],
      "name": "state",
      "outputs": [
        {
          "internalType": "enum DAOMIGovernance.ProposalState",
          "name": "",
          "type": "uint8"
        }
      ],
      "stateMutability": "view",
      "type": "function"
    },
    {
      "inputs": [],
      "name": "timelock",
      "outputs": [
        {
          "internalType": "contract TimelockInterface",
          "name": "",
          "type": "address"
        }
      ],
      "stateMutability": "view",
      "type": "function"
    },
    {
      "inputs": [],
      "name": "votingDelay",
      "outputs": [
        {
          "internalType": "uint256",
          "name": "",
          "type": "uint256"
        }
      ],
      "stateMutability": "pure",
      "type": "function"
    },
    {
      "inputs": [],
      "name": "votingPeriod",
      "outputs": [
        {
          "internalType": "uint256",
          "name": "",
          "type": "uint256"
        }
      ],
      "stateMutability": "pure",
      "type": "function"
    },
    {
      "stateMutability": "payable",
      "type": "receive"
    }
  ],
  "bytecode": {
    "object": "0x60806040526954b40b1f852bda0000006000553480156200001f57600080fd5b50604051620021df380380620021df833981016040819052620000429162000091565b600180546001600160a01b039384166001600160a01b03199182161790915560028054929093169116179055620000c9565b80516001600160a01b03811681146200008c57600080fd5b919050565b60008060408385031215620000a557600080fd5b620000b08362000074565b9150620000c06020840162000074565b90509250929050565b61210680620000d96000396000f3fe6080604052600436106101855760003560e01c80634f80b30d116100d1578063c01f9e371161008a578063da35c66411610064578063da35c6641461053f578063deaaa7cc14610555578063e48083fe14610589578063f74fe90c1461059f57600080fd5b8063c01f9e37146104c7578063c9b1b005146104e7578063d33219b41461051f57600080fd5b80634f80b30d14610436578063791f5d23146104565780637bdbe4d014610474578063818dbe1014610489578063a64e024a1461049c578063b58131b0146104b357600080fd5b806324bc1a641161013e5780633932abb1116101185780633932abb11461037b5780633e4f49e61461038f57806343859632146103bc5780634634c61f1461041657600080fd5b806324bc1a641461032757806325fd935a1461033d5780632d63f6931461035b57600080fd5b8063013cf08b1461019157806302a251a31461025d57806306fdde031461027c57806315373e3d146102bb57806320606b70146102dd578063215809ca1461031157600080fd5b3661018c57005b600080fd5b34801561019d57600080fd5b506102086101ac366004611846565b600460208190526000918252604090912080546001820154600283015460038401549484015460088501546009860154600b870154600c909701546001600160a01b03909616979496939560ff93841694929391929091169089565b604080516001600160a01b03909a168a5260208a0198909852968801959095526060870193909352901515608086015260a085015260c0840152151560e0830152610100820152610120015b60405180910390f35b34801561026957600080fd5b506143805b604051908152602001610254565b34801561028857600080fd5b506102ae6040518060400160405280600681526020016544414f2d4d4960d01b81525081565b60405161025491906118bb565b3480156102c757600080fd5b506102db6102d63660046118e3565b6105bf565b005b3480156102e957600080fd5b5061026e7f8cad95687ba82c2ce50e74f7b754645e5117c3a5bec8151c0726d5857980a86681565b34801561031d57600080fd5b5061026e61168081565b34801561033357600080fd5b5061026e60005481565b34801561034957600080fd5b5061026e69152d02c7e14af680000081565b34801561036757600080fd5b5061026e610376366004611846565b6105ce565b34801561038757600080fd5b50600161026e565b34801561039b57600080fd5b506103af6103aa366004611846565b610605565b6040516102549190611929565b3480156103c857600080fd5b506104066103d736600461196d565b60008281526007602090815260408083206001600160a01b038516845260030190915290205460ff1692915050565b6040519015158152602001610254565b34801561042257600080fd5b506102db610431366004611999565b6107c1565b34801561044257600080fd5b5061026e610451366004611bd9565b6109c7565b34801561046257600080fd5b5061026e690a968163f0a57b40000081565b34801561048057600080fd5b5061026e600a81565b6102db610497366004611bd9565b610e0f565b3480156104a857600080fd5b5061026e62013b0081565b3480156104bf57600080fd5b50600061026e565b3480156104d357600080fd5b5061026e6104e2366004611846565b611048565b3480156104f357600080fd5b50600254610507906001600160a01b031681565b6040516001600160a01b039091168152602001610254565b34801561052b57600080fd5b50600154610507906001600160a01b031681565b34801561054b57600080fd5b5061026e60065481565b34801561056157600080fd5b5061026e7f8e25870c07e0b0b3884c78da52790939a455c275406c44ae8b434b692fb916ee81565b34801561059557600080fd5b5061026e619d8081565b3480156105ab57600080fd5b506102db6105ba366004611bd9565b611077565b6105ca338383611225565b5050565b60008181526003602090815260408083208151928301909152546001600160401b0316908190525b6001600160401b031692915050565b600081600654101580156106195750600082115b61067c5760405162461bcd60e51b815260206004820152602960248201527f476f7665726e6f72416c7068613a3a73746174653a20696e76616c69642070726044820152681bdc1bdcd85b081a5960ba1b60648201526084015b60405180910390fd5b6000828152600460205260409020600b81015460ff16156106a05750600292915050565b806008015443116106b45750600092915050565b806009015443116106c85750600192915050565b806003015481600201541115806106e457506000548160020154105b156106f25750600392915050565b80600c01546000036107075750600492915050565b600481015460ff161561071d5750600792915050565b600160009054906101000a90046001600160a01b03166001600160a01b031663c1a287e26040518163ffffffff1660e01b8152600401602060405180830381865afa158015610770573d6000803e3d6000fd5b505050506040513d601f19601f820116820180604052508101906107949190611ce1565b81600c01546107a39190611d10565b42106107b25750600692915050565b50600592915050565b50919050565b604080518082018252600681526544414f2d4d4960d01b60209182015281517f8cad95687ba82c2ce50e74f7b754645e5117c3a5bec8151c0726d5857980a866818301527fb5f8038135e6dfd25288d788032ebfdb920b110f94dfc561db797f5cbfdf059a81840152466060820152306080808301919091528351808303909101815260a0820184528051908301207f8e25870c07e0b0b3884c78da52790939a455c275406c44ae8b434b692fb916ee60c083015260e08201899052871515610100808401919091528451808403909101815261012083019094528351939092019290922061190160f01b6101408401526101428301829052610162830181905290916000906101820160408051601f198184030181528282528051602091820120600080855291840180845281905260ff8a169284019290925260608301889052608083018790529092509060019060a0016020604051602081039080840390855afa158015610936573d6000803e3d6000fd5b5050604051601f1901519150506001600160a01b0381166109b15760405162461bcd60e51b815260206004820152602f60248201527f476f7665726e6f72416c7068613a3a63617374566f746542795369673a20696e60448201526e76616c6964207369676e617475726560881b6064820152608401610673565b6109bc818a8a611225565b505050505050505050565b6000806109dd868685878051906020012061148b565b90508451865114610a2a5760405162461bcd60e51b81526020600482015260176024820152760d2dcecc2d8d2c840e0e4dee0dee6c2d840d8cadccee8d604b1b6044820152606401610673565b8251865114610a755760405162461bcd60e51b81526020600482015260176024820152760d2dcecc2d8d2c840e0e4dee0dee6c2d840d8cadccee8d604b1b6044820152606401610673565b6000865111610ab75760405162461bcd60e51b815260206004820152600e60248201526d195b5c1d1e481c1c9bdc1bdcd85b60921b6044820152606401610673565b60068054906000610ac783611d28565b9091555050600081815260036020526040812090610ae6600143611d10565b90506000610aff6143806001600160401b038416611d10565b90506000604051806101a00160405280336001600160a01b0316815260200186815260200160008152602001600081526020016000151581526020018b81526020018a8152602001888152602001846001600160401b03168152602001836001600160401b031681526020018b516001600160401b03811115610b8457610b846119f1565b604051908082528060200260200182016040528015610bb757816020015b6060815260200190600190039081610ba25790505b50815260006020808301829052604092830182905283810180518352600480835292849020855181546001600160a01b0319166001600160a01b0390911617815590516001820155928401516002840155606084015160038401556080840151918301805460ff19169215159290921790915560a083015180519394508493610c4692600585019201906115f5565b5060c08201518051610c6291600684019160209091019061165a565b5060e08201518051610c7e916007840191602090910190611695565b50610100820151600882015561012082015160098201556101408201518051610cb191600a8401916020909101906116ee565b50610160820151600b8201805460ff191691151591909117905561018090910151600c90910155610cfb8484815467ffffffffffffffff19166001600160401b0391909116179055565b60018401805467ffffffffffffffff19166001600160401b038416179055604080516020810190915284546001600160401b03169081905215610d725760405162461bcd60e51b815260206004820152600f60248201526e70726f706f61736c2065786973747360881b6044820152606401610673565b7f9cf65a1b8f01e2d98fe6afcf0d858996f77241500f1d7628031e8836dcffd7198a8a8c516001600160401b03811115610dae57610dae6119f1565b604051908082528060200260200182016040528015610de157816020015b6060815260200190600190039081610dcc5790505b508a878733604051610df99796959493929190611e0a565b60405180910390a1509298975050505050505050565b6000610e24858584868051906020012061148b565b6000818152600460208190526040909120908101805460ff191660011790559091506005610e5183610605565b6007811115610e6257610e62611913565b14610ee35760405162461bcd60e51b815260206004820152604560248201527f476f7665726e6f72416c7068613a3a657865637574653a2070726f706f73616c60448201527f2063616e206f6e6c7920626520657865637574656420696620697420697320716064820152641d595d595960da1b608482015260a401610673565b600086516001600160401b03811115610efe57610efe6119f1565b604051908082528060200260200182016040528015610f3157816020015b6060815260200190600190039081610f1c5790505b50905060005b875181101561103e5760015488516001600160a01b0390911690630825f38f908a9084908110610f6957610f69611edb565b6020026020010151898481518110610f8357610f83611edb565b6020026020010151858581518110610f9d57610f9d611edb565b6020026020010151898681518110610fb757610fb7611edb565b602002602001015188600c01546040518663ffffffff1660e01b8152600401610fe4959493929190611ef1565b6000604051808303816000875af1158015611003573d6000803e3d6000fd5b505050506040513d6000823e601f3d908101601f1916820160405261102b9190810190611f3d565b508061103681611d28565b915050610f37565b5050505050505050565b60008181526003602090815260408083208151928301909152600101546001600160401b0316908190526105f6565b600061108c858584868051906020012061148b565b60008181526004602081905260409091209192506110a983610605565b60078111156110ba576110ba611913565b146110c457600080fd5b60015460408051630d48571f60e31b815290516000926001600160a01b031691636a42b8f89160048083019260209291908290030181865afa15801561110e573d6000803e3d6000fd5b505050506040513d601f19601f820116820180604052508101906111329190611ce1565b61113c9042611d10565b9050600087516001600160401b03811115611159576111596119f1565b60405190808252806020026020018201604052801561118c57816020015b60608152602001906001900390816111775790505b50600c8401839055905060005b88518110156109bc576112138982815181106111b7576111b7611edb565b60200260200101518983815181106111d1576111d1611edb565b60200260200101518484815181106111eb576111eb611edb565b602002602001015189858151811061120557611205611edb565b6020026020010151876114c5565b8061121d81611d28565b915050611199565b600161123083610605565b600781111561124157611241611913565b1461128e5760405162461bcd60e51b815260206004820152601b60248201527f5f63617374566f74653a20766f74696e6720697320636c6f73656400000000006044820152606401610673565b6000828152600460209081526040808320600783528184206001600160a01b03881685526003810190935292205460ff16156113225760405162461bcd60e51b815260206004820152602d60248201527f476f7665726e6f72416c7068613a3a5f63617374566f74653a20766f7465722060448201526c185b1c9958591e481d9bdd1959609a1b6064820152608401610673565b600254600883015460405163782d6fe160e01b81526000926001600160a01b03169163782d6fe19161136c918a916004016001600160a01b03929092168252602082015260400190565b602060405180830381865afa158015611389573d6000803e3d6000fd5b505050506040513d601f19601f820116820180604052508101906113ad9190611fb3565b905083156113d857806001600160601b031683600201546113ce9190611d10565b60028401556113f7565b806001600160601b031683600301546113f19190611d10565b60038401555b6001600160a01b038616600081815260038481016020908152604092839020805460ff1916600190811790915591870154865560028701549186019190915581519283528201879052851515908201526001600160601b03821660608201527f877856338e13f63d0c36822ff0ef736b80934cd90574a3a5bc9262c39d217c469060800160405180910390a1505050505050565b6000848484846040516020016114a49493929190611fdc565b60408051601f19818403018152919052805160209091012095945050505050565b6001546040516001600160a01b039091169063f2b06537906114f39088908890889088908890602001612027565b604051602081830303815290604052805190602001206040518263ffffffff1660e01b815260040161152791815260200190565b602060405180830381865afa158015611544573d6000803e3d6000fd5b505050506040513d601f19601f82011682018060405250810190611568919061207f565b1561157257600080fd5b600154604051633a66f90160e01b81526001600160a01b0390911690633a66f901906115aa9088908890889088908890600401611ef1565b6020604051808303816000875af11580156115c9573d6000803e3d6000fd5b505050506040513d601f19601f820116820180604052508101906115ed9190611ce1565b505050505050565b82805482825590600052602060002090810192821561164a579160200282015b8281111561164a57825182546001600160a01b0319166001600160a01b03909116178255602090920191600190910190611615565b50611656929150611747565b5090565b82805482825590600052602060002090810192821561164a579160200282015b8281111561164a57825182559160200191906001019061167a565b8280548282559060005260206000209081019282156116e2579160200282015b828111156116e257825180516116d291849160209091019061175c565b50916020019190600101906116b5565b506116569291506117cf565b82805482825590600052602060002090810192821561173b579160200282015b8281111561173b578251805161172b91849160209091019061175c565b509160200191906001019061170e565b506116569291506117ec565b5b808211156116565760008155600101611748565b8280546117689061209c565b90600052602060002090601f01602090048101928261178a576000855561164a565b82601f106117a357805160ff191683800117855561164a565b8280016001018555821561164a579182018281111561164a57825182559160200191906001019061167a565b808211156116565760006117e38282611809565b506001016117cf565b808211156116565760006118008282611809565b506001016117ec565b5080546118159061209c565b6000825580601f10611825575050565b601f0160209004906000526020600020908101906118439190611747565b50565b60006020828403121561185857600080fd5b5035919050565b60005b8381101561187a578181015183820152602001611862565b83811115611889576000848401525b50505050565b600081518084526118a781602086016020860161185f565b601f01601f19169290920160200192915050565b6020815260006118ce602083018461188f565b9392505050565b801515811461184357600080fd5b600080604083850312156118f657600080fd5b823591506020830135611908816118d5565b809150509250929050565b634e487b7160e01b600052602160045260246000fd5b602081016008831061194b57634e487b7160e01b600052602160045260246000fd5b91905290565b80356001600160a01b038116811461196857600080fd5b919050565b6000806040838503121561198057600080fd5b8235915061199060208401611951565b90509250929050565b600080600080600060a086880312156119b157600080fd5b8535945060208601356119c3816118d5565b9350604086013560ff811681146119d957600080fd5b94979396509394606081013594506080013592915050565b634e487b7160e01b600052604160045260246000fd5b604051601f8201601f191681016001600160401b0381118282101715611a2f57611a2f6119f1565b604052919050565b60006001600160401b03821115611a5057611a506119f1565b5060051b60200190565b600082601f830112611a6b57600080fd5b81356020611a80611a7b83611a37565b611a07565b82815260059290921b84018101918181019086841115611a9f57600080fd5b8286015b84811015611aba5780358352918301918301611aa3565b509695505050505050565b60006001600160401b03821115611ade57611ade6119f1565b50601f01601f191660200190565b6000611afa611a7b84611ac5565b9050828152838383011115611b0e57600080fd5b828260208301376000602084830101529392505050565b600082601f830112611b3657600080fd5b6118ce83833560208501611aec565b600082601f830112611b5657600080fd5b81356020611b66611a7b83611a37565b82815260059290921b84018101918181019086841115611b8557600080fd5b8286015b84811015611aba5780356001600160401b03811115611ba85760008081fd5b8701603f81018913611bba5760008081fd5b611bcb898683013560408401611aec565b845250918301918301611b89565b60008060008060808587031215611bef57600080fd5b84356001600160401b0380821115611c0657600080fd5b818701915087601f830112611c1a57600080fd5b81356020611c2a611a7b83611a37565b82815260059290921b8401810191818101908b841115611c4957600080fd5b948201945b83861015611c6e57611c5f86611951565b82529482019490820190611c4e565b98505088013592505080821115611c8457600080fd5b611c9088838901611a5a565b94506040870135915080821115611ca657600080fd5b611cb288838901611b25565b93506060870135915080821115611cc857600080fd5b50611cd587828801611b45565b91505092959194509250565b600060208284031215611cf357600080fd5b5051919050565b634e487b7160e01b600052601160045260246000fd5b60008219821115611d2357611d23611cfa565b500190565b600060018201611d3a57611d3a611cfa565b5060010190565b600081518084526020808501945080840160005b83811015611d7a5781516001600160a01b031687529582019590820190600101611d55565b509495945050505050565b600081518084526020808501945080840160005b83811015611d7a57815187529582019590820190600101611d99565b600081518084526020808501808196508360051b8101915082860160005b85811015611dfd578284038952611deb84835161188f565b98850198935090840190600101611dd3565b5091979650505050505050565b60e081526000611e1d60e083018a611d41565b602083820381850152611e30828b611d85565b915083820360408501528189518084528284019150828160051b850101838c0160005b83811015611e8157601f19878403018552611e6f83835161188f565b94860194925090850190600101611e53565b50508681036060880152611e95818c611db5565b95505050505050611eb160808301866001600160401b03169052565b6001600160401b03841660a08301526001600160a01b03831660c083015298975050505050505050565b634e487b7160e01b600052603260045260246000fd5b60018060a01b038616815284602082015260a060408201526000611f1860a083018661188f565b8281036060840152611f2a818661188f565b9150508260808301529695505050505050565b600060208284031215611f4f57600080fd5b81516001600160401b03811115611f6557600080fd5b8201601f81018413611f7657600080fd5b8051611f84611a7b82611ac5565b818152856020838501011115611f9957600080fd5b611faa82602083016020860161185f565b95945050505050565b600060208284031215611fc557600080fd5b81516001600160601b03811681146118ce57600080fd5b608081526000611fef6080830187611d41565b82810360208401526120018187611d85565b905082810360408401526120158186611db5565b91505082606083015295945050505050565b6001600160601b03198660601b1681528460148201526000845161205281603485016020890161185f565b84519083019061206981603484016020890161185f565b0160348101939093525050605401949350505050565b60006020828403121561209157600080fd5b81516118ce816118d5565b600181811c908216806120b057607f821691505b6020821081036107bb57634e487b7160e01b600052602260045260246000fdfea2646970667358221220c4e6a2287d182f67b833a1cca43bb6f8dcb7a6fbdc3ba18e183a1803663cc2b764736f6c634300080d0033",
    "linkReferences": {}
  }
}