{
  "abi": [
    {
      "inputs": [],
      "stateMutability": "nonpayable",
      "type": "constructor"
    },
    {
      "anonymous": false,
      "inputs": [
        {
          "indexed": true,
          "internalType": "address",
          "name": "owner",
          "type": "address"
        },
        {
          "indexed": true,
          "internalType": "address",
          "name": "spender",
          "type": "address"
        },
        {
          "indexed": false,
          "internalType": "uint256",
          "name": "value",
          "type": "uint256"
        }
      ],
      "name": "Approval",
      "type": "event"
    },
    {
      "anonymous": false,
      "inputs": [
        {
          "indexed": true,
          "internalType": "address",
          "name": "delegator",
          "type": "address"
        },
        {
          "indexed": true,
          "internalType": "address",
          "name": "fromDelegate",
          "type": "address"
        },
        {
          "indexed": true,
          "internalType": "address",
          "name": "toDelegate",
          "type": "address"
        }
      ],
      "name": "DelegateChanged",
      "type": "event"
    },
    {
      "anonymous": false,
      "inputs": [
        {
          "indexed": true,
          "internalType": "address",
          "name": "delegate",
          "type": "address"
        },
        {
          "indexed": false,
          "internalType": "uint256",
          "name": "previousBalance",
          "type": "uint256"
        },
        {
          "indexed": false,
          "internalType": "uint256",
          "name": "newBalance",
          "type": "uint256"
        }
      ],
      "name": "DelegateVotesChanged",
      "type": "event"
    },
    {
      "anonymous": false,
      "inputs": [
        {
          "indexed": true,
          "internalType": "address",
          "name": "from",
          "type": "address"
        },
        {
          "indexed": true,
          "internalType": "address",
          "name": "to",
          "type": "address"
        },
        {
          "indexed": false,
          "internalType": "uint256",
          "name": "value",
          "type": "uint256"
        }
      ],
      "name": "Transfer",
      "type": "event"
    },
    {
      "inputs": [],
      "name": "DOMAIN_SEPARATOR",
      "outputs": [
        {
          "internalType": "bytes32",
          "name": "",
          "type": "bytes32"
        }
      ],
      "stateMutability": "view",
      "type": "function"
    },
    {
      "inputs": [
        {
          "internalType": "address",
          "name": "owner",
          "type": "address"
        },
        {
          "internalType": "address",
          "name": "spender",
          "type": "address"
        }
      ],
      "name": "allowance",
      "outputs": [
        {
          "internalType": "uint256",
          "name": "",
          "type": "uint256"
        }
      ],
      "stateMutability": "view",
      "type": "function"
    },
    {
      "inputs": [
        {
          "internalType": "address",
          "name": "spender",
          "type": "address"
        },
        {
          "internalType": "uint256",
          "name": "amount",
          "type": "uint256"
        }
      ],
      "name": "approve",
      "outputs": [
        {
          "internalType": "bool",
          "name": "",
          "type": "bool"
        }
      ],
      "stateMutability": "nonpayable",
      "type": "function"
    },
    {
      "inputs": [
        {
          "internalType": "address",
          "name": "account",
          "type": "address"
        }
      ],
      "name": "balanceOf",
      "outputs": [
        {
          "internalType": "uint256",
          "name": "",
          "type": "uint256"
        }
      ],
      "stateMutability": "view",
      "type": "function"
    },
    {
      "inputs": [
        {
          "internalType": "address",
          "name": "account",
          "type": "address"
        },
        {
          "internalType": "uint32",
          "name": "pos",
          "type": "uint32"
        }
      ],
      "name": "checkpoints",
      "outputs": [
        {
          "components": [
            {
              "internalType": "uint32",
              "name": "fromBlock",
              "type": "uint32"
            },
            {
              "internalType": "uint224",
              "name": "votes",
              "type": "uint224"
            }
          ],
          "internalType": "struct ERC20Votes.Checkpoint",
          "name": "",
          "type": "tuple"
        }
      ],
      "stateMutability": "view",
      "type": "function"
    },
    {
      "inputs": [],
      "name": "decimals",
      "outputs": [
        {
          "internalType": "uint8",
          "name": "",
          "type": "uint8"
        }
      ],
      "stateMutability": "view",
      "type": "function"
    },
    {
      "inputs": [
        {
          "internalType": "address",
          "name": "spender",
          "type": "address"
        },
        {
          "internalType": "uint256",
          "name": "subtractedValue",
          "type": "uint256"
        }
      ],
      "name": "decreaseAllowance",
      "outputs": [
        {
          "internalType": "bool",
          "name": "",
          "type": "bool"
        }
      ],
      "stateMutability": "nonpayable",
      "type": "function"
    },
    {
      "inputs": [
        {
          "internalType": "address",
          "name": "delegatee",
          "type": "address"
        }
      ],
      "name": "delegate",
      "outputs": [],
      "stateMutability": "nonpayable",
      "type": "function"
    },
    {
      "inputs": [
        {
          "internalType": "address",
          "name": "delegatee",
          "type": "address"
        },
        {
          "internalType": "uint256",
          "name": "nonce",
          "type": "uint256"
        },
        {
          "internalType": "uint256",
          "name": "expiry",
          "type": "uint256"
        },
        {
          "internalType": "uint8",
          "name": "v",
          "type": "uint8"
        },
        {
          "internalType": "bytes32",
          "name": "r",
          "type": "bytes32"
        },
        {
          "internalType": "bytes32",
          "name": "s",
          "type": "bytes32"
        }
      ],
      "name": "delegateBySig",
      "outputs": [],
      "stateMutability": "nonpayable",
      "type": "function"
    },
    {
      "inputs": [
        {
          "internalType": "address",
          "name": "account",
          "type": "address"
        }
      ],
      "name": "delegates",
      "outputs": [
        {
          "internalType": "address",
          "name": "",
          "type": "address"
        }
      ],
      "stateMutability": "view",
      "type": "function"
    },
    {
      "inputs": [
        {
          "internalType": "address",
          "name": "account",
          "type": "address"
        }
      ],
      "name": "getCurrentVotes",
      "outputs": [
        {
          "internalType": "uint96",
          "name": "",
          "type": "uint96"
        }
      ],
      "stateMutability": "view",
      "type": "function"
    },
    {
      "inputs": [
        {
          "internalType": "uint256",
          "name": "blockNumber",
          "type": "uint256"
        }
      ],
      "name": "getPastTotalSupply",
      "outputs": [
        {
          "internalType": "uint256",
          "name": "",
          "type": "uint256"
        }
      ],
      "stateMutability": "view",
      "type": "function"
    },
    {
      "inputs": [
        {
          "internalType": "address",
          "name": "account",
          "type": "address"
        },
        {
          "internalType": "uint256",
          "name": "blockNumber",
          "type": "uint256"
        }
      ],
      "name": "getPastVotes",
      "outputs": [
        {
          "internalType": "uint256",
          "name": "",
          "type": "uint256"
        }
      ],
      "stateMutability": "view",
      "type": "function"
    },
    {
      "inputs": [
        {
          "internalType": "address",
          "name": "account",
          "type": "address"
        },
        {
          "internalType": "uint256",
          "name": "blockNumber",
          "type": "uint256"
        }
      ],
      "name": "getPriorVotes",
      "outputs": [
        {
          "internalType": "uint96",
          "name": "",
          "type": "uint96"
        }
      ],
      "stateMutability": "view",
      "type": "function"
    },
    {
      "inputs": [
        {
          "internalType": "address",
          "name": "account",
          "type": "address"
        }
      ],
      "name": "getVotes",
      "outputs": [
        {
          "internalType": "uint256",
          "name": "",
          "type": "uint256"
        }
      ],
      "stateMutability": "view",
      "type": "function"
    },
    {
      "inputs": [
        {
          "internalType": "address",
          "name": "spender",
          "type": "address"
        },
        {
          "internalType": "uint256",
          "name": "addedValue",
          "type": "uint256"
        }
      ],
      "name": "increaseAllowance",
      "outputs": [
        {
          "internalType": "bool",
          "name": "",
          "type": "bool"
        }
      ],
      "stateMutability": "nonpayable",
      "type": "function"
    },
    {
      "inputs": [],
      "name": "name",
      "outputs": [
        {
          "internalType": "string",
          "name": "",
          "type": "string"
        }
      ],
      "stateMutability": "view",
      "type": "function"
    },
    {
      "inputs": [
        {
          "internalType": "address",
          "name": "owner",
          "type": "address"
        }
      ],
      "name": "nonces",
      "outputs": [
        {
          "internalType": "uint256",
          "name": "",
          "type": "uint256"
        }
      ],
      "stateMutability": "view",
      "type": "function"
    },
    {
      "inputs": [
        {
          "internalType": "address",
          "name": "account",
          "type": "address"
        }
      ],
      "name": "numCheckpoints",
      "outputs": [
        {
          "internalType": "uint32",
          "name": "",
          "type": "uint32"
        }
      ],
      "stateMutability": "view",
      "type": "function"
    },
    {
      "inputs": [
        {
          "internalType": "address",
          "name": "owner",
          "type": "address"
        },
        {
          "internalType": "address",
          "name": "spender",
          "type": "address"
        },
        {
          "internalType": "uint256",
          "name": "value",
          "type": "uint256"
        },
        {
          "internalType": "uint256",
          "name": "deadline",
          "type": "uint256"
        },
        {
          "internalType": "uint8",
          "name": "v",
          "type": "uint8"
        },
        {
          "internalType": "bytes32",
          "name": "r",
          "type": "bytes32"
        },
        {
          "internalType": "bytes32",
          "name": "s",
          "type": "bytes32"
        }
      ],
      "name": "permit",
      "outputs": [],
      "stateMutability": "nonpayable",
      "type": "function"
    },
    {
      "inputs": [],
      "name": "symbol",
      "outputs": [
        {
          "internalType": "string",
          "name": "",
          "type": "string"
        }
      ],
      "stateMutability": "view",
      "type": "function"
    },
    {
      "inputs": [],
      "name": "totalSupply",
      "outputs": [
        {
          "internalType": "uint256",
          "name": "",
          "type": "uint256"
        }
      ],
      "stateMutability": "view",
      "type": "function"
    },
    {
      "inputs": [
        {
          "internalType": "address",
          "name": "to",
          "type": "address"
        },
        {
          "internalType": "uint256",
          "name": "amount",
          "type": "uint256"
        }
      ],
      "name": "transfer",
      "outputs": [
        {
          "internalType": "bool",
          "name": "",
          "type": "bool"
        }
      ],
      "stateMutability": "nonpayable",
      "type": "function"
    },
    {
      "inputs": [
        {
          "internalType": "address",
          "name": "from",
          "type": "address"
        },
        {
          "internalType": "address",
          "name": "to",
          "type": "address"
        },
        {
          "internalType": "uint256",
          "name": "amount",
          "type": "uint256"
        }
      ],
      "name": "transferFrom",
      "outputs": [
        {
          "internalType": "bool",
          "name": "",
          "type": "bool"
        }
      ],
      "stateMutability": "nonpayable",
      "type": "function"
    }
  ],
  "bytecode": {
    "object": "0x6101406040526a084595161401484a000000600a553480156200002157600080fd5b506040518060400160405280600e81526020016d4552432d3230204578616d706c6560901b81525080604051806040016040528060018152602001603160f81b815250604051806040016040528060098152602001682220a796aa37b5b2b760b91b8152506040518060400160405280600381526020016211105560ea1b8152508160039080519060200190620000ba92919062000758565b508051620000d090600490602084019062000758565b5050825160209384012082519284019290922060e08390526101008190524660a0818152604080517f8b73c3c69bb8fe3d512ecc4cf759cc79239f7b179b0ffacaa9a75d522b39400f818901819052818301979097526060810194909452608080850193909352308483018190528151808603909301835260c094850190915281519190960120905292909252610120525050600a546200017390339062000179565b62000891565b6200019082826200022e60201b62000a811760201c565b6001600160601b03620001a260025490565b11156200020f5760405162461bcd60e51b815260206004820152603060248201527f4552433230566f7465733a20746f74616c20737570706c79207269736b73206f60448201526f766572666c6f77696e6720766f74657360801b60648201526084015b60405180910390fd5b62000228600962000b6c6200032160201b178362000336565b50505050565b6001600160a01b038216620002865760405162461bcd60e51b815260206004820152601f60248201527f45524332303a206d696e7420746f20746865207a65726f206164647265737300604482015260640162000206565b80600260008282546200029a91906200080a565b90915550506001600160a01b03821660009081526020819052604081208054839290620002c99084906200080a565b90915550506040518181526001600160a01b038316906000907fddf252ad1be2c89b69c2b068fc378daa952ba7f163c4a11628f55a4df523b3ef9060200160405180910390a36200031d60008383620004ed565b5050565b60006200032f82846200080a565b9392505050565b8254600090819080156200038857856200035260018362000825565b815481106200036557620003656200083f565b60009182526020909120015464010000000090046001600160e01b03166200038b565b60005b6001600160e01b03169250620003a283858760201c565b9150600081118015620003e657504386620003bf60018462000825565b81548110620003d257620003d26200083f565b60009182526020909120015463ffffffff16145b156200045a5762000402826200053960201b62000b781760201c565b866200041060018462000825565b815481106200042357620004236200083f565b9060005260206000200160000160046101000a8154816001600160e01b0302191690836001600160e01b03160217905550620004df565b8560405180604001604052806200047c43620005a860201b62000be51760201c565b63ffffffff1681526020016200049d856200053960201b62000b781760201c565b6001600160e01b0390811690915282546001810184556000938452602093849020835194909301519091166401000000000263ffffffff909316929092179101555b50935093915050565b505050565b62000505838383620004e860201b62000c4a1760201c565b6001600160a01b03838116600090815260076020526040808220548584168352912054620004e8929182169116836200060f565b60006001600160e01b03821115620005a45760405162461bcd60e51b815260206004820152602760248201527f53616665436173743a2076616c756520646f65736e27742066697420696e20326044820152663234206269747360c81b606482015260840162000206565b5090565b600063ffffffff821115620005a45760405162461bcd60e51b815260206004820152602660248201527f53616665436173743a2076616c756520646f65736e27742066697420696e203360448201526532206269747360d01b606482015260840162000206565b816001600160a01b0316836001600160a01b031614158015620006325750600081115b15620004e8576001600160a01b03831615620006bf576001600160a01b0383166000908152600860209081526040822082916200067c91906200074a901b62000c4f178562000336565b91509150846001600160a01b03166000805160206200250a8339815191528383604051620006b4929190918252602082015260400190565b60405180910390a250505b6001600160a01b03821615620004e8576001600160a01b03821660009081526008602090815260408220829162000703919062000321901b62000b6c178562000336565b91509150836001600160a01b03166000805160206200250a83398151915283836040516200073b929190918252602082015260400190565b60405180910390a25050505050565b60006200032f828462000825565b828054620007669062000855565b90600052602060002090601f0160209004810192826200078a5760008555620007d5565b82601f10620007a557805160ff1916838001178555620007d5565b82800160010185558215620007d5579182015b82811115620007d5578251825591602001919060010190620007b8565b50620005a49291505b80821115620005a45760008155600101620007de565b634e487b7160e01b600052601160045260246000fd5b60008219821115620008205762000820620007f4565b500190565b6000828210156200083a576200083a620007f4565b500390565b634e487b7160e01b600052603260045260246000fd5b600181811c908216806200086a57607f821691505b6020821081036200088b57634e487b7160e01b600052602260045260246000fd5b50919050565b60805160a05160c05160e0516101005161012051611c29620008e16000396000611057015260006110a60152600061108101526000610fda015260006110040152600061102e0152611c296000f3fe608060405234801561001057600080fd5b50600436106101585760003560e01c8063782d6fe1116100c3578063a9059cbb1161007c578063a9059cbb1461032e578063b4b5ea5714610341578063c3cda52014610354578063d505accf14610367578063dd62ed3e1461037a578063f1127ed81461038d57600080fd5b8063782d6fe1146102aa5780637ecebe00146102da5780638e539e8c146102ed57806395d89b41146103005780639ab24eb014610308578063a457c2d71461031b57600080fd5b8063395093511161011557806339509351146101da5780633a46b1a8146101ed578063587cde1e146102005780635c19a95c146102445780636fcfff451461025957806370a082311461028157600080fd5b806306fdde031461015d578063095ea7b31461017b57806318160ddd1461019e57806323b872dd146101b0578063313ce567146101c35780633644e515146101d2575b600080fd5b6101656103ca565b60405161017291906118db565b60405180910390f35b61018e61018936600461194c565b61045c565b6040519015158152602001610172565b6002545b604051908152602001610172565b61018e6101be366004611976565b610474565b60405160128152602001610172565b6101a2610498565b61018e6101e836600461194c565b6104a7565b6101a26101fb36600461194c565b6104c9565b61022c61020e3660046119b2565b6001600160a01b039081166000908152600760205260409020541690565b6040516001600160a01b039091168152602001610172565b6102576102523660046119b2565b610548565b005b61026c6102673660046119b2565b610555565b60405163ffffffff9091168152602001610172565b6101a261028f3660046119b2565b6001600160a01b031660009081526020819052604090205490565b6102bd6102b836600461194c565b61057d565b6040516bffffffffffffffffffffffff9091168152602001610172565b6101a26102e83660046119b2565b610591565b6101a26102fb3660046119cd565b6105af565b61016561060b565b6101a26103163660046119b2565b61061a565b61018e61032936600461194c565b6106a1565b61018e61033c36600461194c565b61071c565b6102bd61034f3660046119b2565b61072a565b6102576103623660046119f7565b610738565b610257610375366004611a4f565b61086e565b6101a2610388366004611ab9565b6109d2565b6103a061039b366004611aec565b6109fd565b60408051825163ffffffff1681526020928301516001600160e01b03169281019290925201610172565b6060600380546103d990611b2c565b80601f016020809104026020016040519081016040528092919081815260200182805461040590611b2c565b80156104525780601f1061042757610100808354040283529160200191610452565b820191906000526020600020905b81548152906001019060200180831161043557829003601f168201915b5050505050905090565b60003361046a818585610c5b565b5060019392505050565b600033610482858285610d7f565b61048d858585610df9565b506001949350505050565b60006104a2610fcd565b905090565b60003361046a8185856104ba83836109d2565b6104c49190611b76565b610c5b565b600043821061051f5760405162461bcd60e51b815260206004820152601f60248201527f4552433230566f7465733a20626c6f636b206e6f7420796574206d696e65640060448201526064015b60405180910390fd5b6001600160a01b038316600090815260086020526040902061054190836110f4565b9392505050565b61055233826111b1565b50565b6001600160a01b03811660009081526008602052604081205461057790610be5565b92915050565b600061054161058c84846104c9565b61122a565b6001600160a01b038116600090815260056020526040812054610577565b60004382106106005760405162461bcd60e51b815260206004820152601f60248201527f4552433230566f7465733a20626c6f636b206e6f7420796574206d696e6564006044820152606401610516565b6105776009836110f4565b6060600480546103d990611b2c565b6001600160a01b038116600090815260086020526040812054801561068e576001600160a01b038316600090815260086020526040902061065c600183611b8e565b8154811061066c5761066c611ba5565b60009182526020909120015464010000000090046001600160e01b0316610691565b60005b6001600160e01b03169392505050565b600033816106af82866109d2565b90508381101561070f5760405162461bcd60e51b815260206004820152602560248201527f45524332303a2064656372656173656420616c6c6f77616e63652062656c6f77604482015264207a65726f60d81b6064820152608401610516565b61048d8286868403610c5b565b60003361046a818585610df9565b600061057761058c8361061a565b834211156107885760405162461bcd60e51b815260206004820152601d60248201527f4552433230566f7465733a207369676e617475726520657870697265640000006044820152606401610516565b604080517fe48329057bfd03d55e49b547132e39cffd9c1820ad7b9d4c5307691425d15adf60208201526001600160a01b038816918101919091526060810186905260808101859052600090610802906107fa9060a00160405160208183030381529060405280519060200120611297565b8585856112e5565b905061080d8161130d565b861461085b5760405162461bcd60e51b815260206004820152601960248201527f4552433230566f7465733a20696e76616c6964206e6f6e6365000000000000006044820152606401610516565b61086581886111b1565b50505050505050565b834211156108be5760405162461bcd60e51b815260206004820152601d60248201527f45524332305065726d69743a206578706972656420646561646c696e650000006044820152606401610516565b60007f6e71edae12b1b97f4d1f60370fef10105fa2faae0126114a169c64845d6126c98888886108ed8c61130d565b6040805160208101969096526001600160a01b0394851690860152929091166060840152608083015260a082015260c0810186905260e001604051602081830303815290604052805190602001209050600061094882611297565b90506000610958828787876112e5565b9050896001600160a01b0316816001600160a01b0316146109bb5760405162461bcd60e51b815260206004820152601e60248201527f45524332305065726d69743a20696e76616c6964207369676e617475726500006044820152606401610516565b6109c68a8a8a610c5b565b50505050505050505050565b6001600160a01b03918216600090815260016020908152604080832093909416825291909152205490565b60408051808201909152600080825260208201526001600160a01b0383166000908152600860205260409020805463ffffffff8416908110610a4157610a41611ba5565b60009182526020918290206040805180820190915291015463ffffffff8116825264010000000090046001600160e01b0316918101919091529392505050565b6001600160a01b038216610ad75760405162461bcd60e51b815260206004820152601f60248201527f45524332303a206d696e7420746f20746865207a65726f2061646472657373006044820152606401610516565b8060026000828254610ae99190611b76565b90915550506001600160a01b03821660009081526020819052604081208054839290610b16908490611b76565b90915550506040518181526001600160a01b038316906000907fddf252ad1be2c89b69c2b068fc378daa952ba7f163c4a11628f55a4df523b3ef9060200160405180910390a3610b6860008383611335565b5050565b60006105418284611b76565b60006001600160e01b03821115610be15760405162461bcd60e51b815260206004820152602760248201527f53616665436173743a2076616c756520646f65736e27742066697420696e20326044820152663234206269747360c81b6064820152608401610516565b5090565b600063ffffffff821115610be15760405162461bcd60e51b815260206004820152602660248201527f53616665436173743a2076616c756520646f65736e27742066697420696e203360448201526532206269747360d01b6064820152608401610516565b505050565b60006105418284611b8e565b6001600160a01b038316610cbd5760405162461bcd60e51b8152602060048201526024808201527f45524332303a20617070726f76652066726f6d20746865207a65726f206164646044820152637265737360e01b6064820152608401610516565b6001600160a01b038216610d1e5760405162461bcd60e51b815260206004820152602260248201527f45524332303a20617070726f766520746f20746865207a65726f206164647265604482015261737360f01b6064820152608401610516565b6001600160a01b0383811660008181526001602090815260408083209487168084529482529182902085905590518481527f8c5be1e5ebec7d5bd14f71427d1e84f3dd0314c0f7b2291e5b200ac8c7c3b925910160405180910390a3505050565b6000610d8b84846109d2565b90506000198114610df35781811015610de65760405162461bcd60e51b815260206004820152601d60248201527f45524332303a20696e73756666696369656e7420616c6c6f77616e63650000006044820152606401610516565b610df38484848403610c5b565b50505050565b6001600160a01b038316610e5d5760405162461bcd60e51b815260206004820152602560248201527f45524332303a207472616e736665722066726f6d20746865207a65726f206164604482015264647265737360d81b6064820152608401610516565b6001600160a01b038216610ebf5760405162461bcd60e51b815260206004820152602360248201527f45524332303a207472616e7366657220746f20746865207a65726f206164647260448201526265737360e81b6064820152608401610516565b6001600160a01b03831660009081526020819052604090205481811015610f375760405162461bcd60e51b815260206004820152602660248201527f45524332303a207472616e7366657220616d6f756e7420657863656564732062604482015265616c616e636560d01b6064820152608401610516565b6001600160a01b03808516600090815260208190526040808220858503905591851681529081208054849290610f6e908490611b76565b92505081905550826001600160a01b0316846001600160a01b03167fddf252ad1be2c89b69c2b068fc378daa952ba7f163c4a11628f55a4df523b3ef84604051610fba91815260200190565b60405180910390a3610df3848484611335565b6000306001600160a01b037f00000000000000000000000000000000000000000000000000000000000000001614801561102657507f000000000000000000000000000000000000000000000000000000000000000046145b1561105057507f000000000000000000000000000000000000000000000000000000000000000090565b50604080517f00000000000000000000000000000000000000000000000000000000000000006020808301919091527f0000000000000000000000000000000000000000000000000000000000000000828401527f000000000000000000000000000000000000000000000000000000000000000060608301524660808301523060a0808401919091528351808403909101815260c0909201909252805191012090565b8154600090815b8181101561115857600061110f8284611367565b90508486828154811061112457611124611ba5565b60009182526020909120015463ffffffff16111561114457809250611152565b61114f816001611b76565b91505b506110fb565b811561119c578461116a600184611b8e565b8154811061117a5761117a611ba5565b60009182526020909120015464010000000090046001600160e01b031661119f565b60005b6001600160e01b031695945050505050565b6001600160a01b038281166000818152600760208181526040808420805485845282862054949093528787166001600160a01b03198416811790915590519190951694919391928592917f3134e8a2e6d97e929a7e54011ea5485d7d196dd5f0ba4d4ef95803e8e3fc257f9190a4610df3828483611382565b60006bffffffffffffffffffffffff821115610be15760405162461bcd60e51b815260206004820152602660248201527f53616665436173743a2076616c756520646f65736e27742066697420696e203960448201526536206269747360d01b6064820152608401610516565b60006105776112a4610fcd565b8360405161190160f01b6020820152602281018390526042810182905260009060620160405160208183030381529060405280519060200120905092915050565b60008060006112f6878787876114bf565b91509150611303816115ac565b5095945050505050565b6001600160a01b03811660009081526005602052604090208054600181018255905b50919050565b6001600160a01b03838116600090815260076020526040808220548584168352912054610c4a92918216911683611382565b60006113766002848418611bbb565b61054190848416611b76565b816001600160a01b0316836001600160a01b0316141580156113a45750600081115b15610c4a576001600160a01b03831615611432576001600160a01b038316600090815260086020526040812081906113df90610c4f85611762565b91509150846001600160a01b03167fdec2bacdd2f05b59de34da9b523dff8be42e5e38e818c82fdb0bae774387a7248383604051611427929190918252602082015260400190565b60405180910390a250505b6001600160a01b03821615610c4a576001600160a01b0382166000908152600860205260408120819061146890610b6c85611762565b91509150836001600160a01b03167fdec2bacdd2f05b59de34da9b523dff8be42e5e38e818c82fdb0bae774387a72483836040516114b0929190918252602082015260400190565b60405180910390a25050505050565b6000807f7fffffffffffffffffffffffffffffff5d576e7357a4501ddfe92f46681b20a08311156114f657506000905060036115a3565b8460ff16601b1415801561150e57508460ff16601c14155b1561151f57506000905060046115a3565b6040805160008082526020820180845289905260ff881692820192909252606081018690526080810185905260019060a0016020604051602081039080840390855afa158015611573573d6000803e3d6000fd5b5050604051601f1901519150506001600160a01b03811661159c576000600192509250506115a3565b9150600090505b94509492505050565b60008160048111156115c0576115c0611bdd565b036115c85750565b60018160048111156115dc576115dc611bdd565b036116295760405162461bcd60e51b815260206004820152601860248201527f45434453413a20696e76616c6964207369676e617475726500000000000000006044820152606401610516565b600281600481111561163d5761163d611bdd565b0361168a5760405162461bcd60e51b815260206004820152601f60248201527f45434453413a20696e76616c6964207369676e6174757265206c656e677468006044820152606401610516565b600381600481111561169e5761169e611bdd565b036116f65760405162461bcd60e51b815260206004820152602260248201527f45434453413a20696e76616c6964207369676e6174757265202773272076616c604482015261756560f01b6064820152608401610516565b600481600481111561170a5761170a611bdd565b036105525760405162461bcd60e51b815260206004820152602260248201527f45434453413a20696e76616c6964207369676e6174757265202776272076616c604482015261756560f01b6064820152608401610516565b8254600090819080156117ad578561177b600183611b8e565b8154811061178b5761178b611ba5565b60009182526020909120015464010000000090046001600160e01b03166117b0565b60005b6001600160e01b031692506117c983858763ffffffff16565b9150600081118015611807575043866117e3600184611b8e565b815481106117f3576117f3611ba5565b60009182526020909120015463ffffffff16145b156118675761181582610b78565b86611821600184611b8e565b8154811061183157611831611ba5565b9060005260206000200160000160046101000a8154816001600160e01b0302191690836001600160e01b031602179055506118d2565b85604051806040016040528061187c43610be5565b63ffffffff16815260200161189085610b78565b6001600160e01b0390811690915282546001810184556000938452602093849020835194909301519091166401000000000263ffffffff909316929092179101555b50935093915050565b600060208083528351808285015260005b81811015611908578581018301518582016040015282016118ec565b8181111561191a576000604083870101525b50601f01601f1916929092016040019392505050565b80356001600160a01b038116811461194757600080fd5b919050565b6000806040838503121561195f57600080fd5b61196883611930565b946020939093013593505050565b60008060006060848603121561198b57600080fd5b61199484611930565b92506119a260208501611930565b9150604084013590509250925092565b6000602082840312156119c457600080fd5b61054182611930565b6000602082840312156119df57600080fd5b5035919050565b803560ff8116811461194757600080fd5b60008060008060008060c08789031215611a1057600080fd5b611a1987611930565b95506020870135945060408701359350611a35606088016119e6565b92506080870135915060a087013590509295509295509295565b600080600080600080600060e0888a031215611a6a57600080fd5b611a7388611930565b9650611a8160208901611930565b95506040880135945060608801359350611a9d608089016119e6565b925060a0880135915060c0880135905092959891949750929550565b60008060408385031215611acc57600080fd5b611ad583611930565b9150611ae360208401611930565b90509250929050565b60008060408385031215611aff57600080fd5b611b0883611930565b9150602083013563ffffffff81168114611b2157600080fd5b809150509250929050565b600181811c90821680611b4057607f821691505b60208210810361132f57634e487b7160e01b600052602260045260246000fd5b634e487b7160e01b600052601160045260246000fd5b60008219821115611b8957611b89611b60565b500190565b600082821015611ba057611ba0611b60565b500390565b634e487b7160e01b600052603260045260246000fd5b600082611bd857634e487b7160e01b600052601260045260246000fd5b500490565b634e487b7160e01b600052602160045260246000fdfea26469706673582212203c822237ccfc5c83fa19730365dbccd8690ccfbe983c41f9aaaa3b9b38f4629764736f6c634300080d0033dec2bacdd2f05b59de34da9b523dff8be42e5e38e818c82fdb0bae774387a724",
    "linkReferences": {}
  }
}